:020000040800F2
:10000000080E002061020008D3360008F73500080A
:10001000D1360008E9230008893B000800000000F1
:10002000000000000000000000000000D7360008BB
:100030009D24000800000000D5360008D9360008CD
:100040007B0200087B0200087B0200087B0200089C
:100050007B0200087B0200087B0200087B0200088C
:100060007B0200087B0200087B0200087B0200087C
:100070007B0200087B0200087B0200087B0200086C
:100080007B0200087B0200087B02000800000000E1
:100090000000000000000000000000007B020008DB
:1000A0007B0200087B020008813700087B02000801
:1000B0007B0200087B0200087B0200087B0200082C
:1000C0007B0200087B0200087B0200087B0200081C
:1000D0007B0200087B0200087B0200080000000091
:1000E0007B0200087B0200087B0200080000000081
:1000F0000000000000000000000000007B0200087B
:10010000000000007B0200087B0200087B02000860
:1001100000000000000000000000000000000000DF
:100120007B0200087B020008ED2300087B02000828
:100130007B0200080000000000000000000000003A
:100140000000000000000000000000007B0200082A
:100150007B0200087B0200087B0200087B0200088B
:100160007B0200087B020008000000000000000085
:10017000000000000000000000000000000000007F
:10018000000000007B0200080000000000000000EA
:100190007B02000800F002F800F052F80AA090E894
:1001A000000C82448344AAF10107DA4501D100F032
:1001B00047F8AFF2090EBAE80F0013F0010F18BFAD
:1001C000FB1A43F0010318479C440000BC440000A4
:1001D000103A24BF78C878C1FAD8520724BF30C873
:1001E00030C144BF04680C60704700000023002445
:1001F00000250026103A28BF78C1FBD8520728BF37
:1002000030C148BF0B607047662904F051816429F2
:1002100000F00681002070471FB504F03CF900F0A3
:1002200011FF04000020002103F0BCFE401C6060B0
:100230000020002103F0A0FEE0601FBD10B510BD3E
:1002400001F0C6F91146FFF7E7FF03F07BFE01F06E
:1002500023FC03B4FFF7F2FF03BC01F089FC0000AC
:100260000948804709480047FEE7FEE7FEE7FEE74A
:10027000FEE7FEE7FEE7FEE7FEE7FEE70448054986
:10028000054A064B704700007137000895010008C9
:1002900008080020080E0020080A0020080A002094
:1002A00053EA020C00F069802DE9F04B4FF0000694
:1002B000002B1FBFB3FA83F503FA05F424FA05F601
:1002C0005E4012BF1643B2FA82F502FA05F4C5F198
:1002D00020051EBF22FA05FC44EA0C04203556EA2C
:1002E000044C4FEA144418BF641C4FF000084FF050
:1002F0000009904271EB030C39D3002919BFB1FA00
:1003000081F701FA07F6B0FA80F700FA07F6C7F1AD
:1003100020071EBF20FA07FC46EA0C062037B6FB72
:10032000F4FCA7EB0507103F07F01F0BCBF12006ED
:100330000CFA0BFB2CFA06F644BFB3460026202F1E
:10034000A4BF5E464FF0000B5BEA060C08BF4FF0FF
:10035000010B19EB0B09ABFB027C48EB0608C01B39
:1003600006FB02CC0BFB03CC71EB0C01C1E70B4687
:10037000024641464846BDE8F08B13B54FF00000F9
:100380004FF00001AFF30080BDE81C407047000053
:100390000FB41CB5074B06AA7B446946009005982C
:1003A00000F085FB0020694600F094FB1CBC5DF862
:1003B00014FB0000390700002DE9F0410E46044609
:1003C000002020622046E168884730B3252805D008
:1003D000D4E901219047206A401CF2E7E1682046F9
:1003E00000278847050018D0A5F14100192802D838
:1003F00020354FF400673246294620462760FFF734
:1004000003FF40B1012804D0F61D26F00706083688
:10041000D8E7361DD6E72846DAE7206ABDE8F0813E
:100420002DE9F0410646002410687529314616A5CD
:1004300010D0AFF30080002802DA404213A507E095
:1004400031688A0701D512A502E0490704D511A534
:10045000012401E0AFF3008000210A2206F1240705
:1004600009E0B0FBF2FCB0FBF2F302FB1C00303001
:1004700078541846491C0028F3D123462A463046B2
:10048000BDE8F04100F0A5B8000000002D0000001C
:100490002B000000200000000FB400B58DB010A9A3
:1004A000099000910B904FF0FF300A9000200C90C3
:1004B000064878440690064878446A4607900F99A3
:1004C00009A800F08FFD0DB05DF814FB4F0B000084
:1004D000670B000030B505460B462A4613F8014B62
:1004E00012F8010B08B1A042F8D01CB1002802D0CC
:1004F0006D1CF1E7284630BD40EA0103024630B5E5
:100500009B0710D14FF0013400E008C208C91D1B41
:100510009D4315EAC41FF8D013F0FF0102F8011B38
:100520000DD01B0AF8E711F8013B002B02F8013B44
:1005300005D011F8013B002B02F8013BF3D130BD8F
:1005400010B5431C02E010F8011B71B18107FAD10C
:100550004FF0013202C88C1A8C4314EAC211F9D050
:10056000C01A0A0603D0C01E10BDC01A10BD0A046E
:1005700001D0801E10BD0902FCD0401E10BD4FF0FE
:10058000000200B5134694469646203922BFA0E8E3
:100590000C50A0E80C50B1F12001BFF4F7AF0907EF
:1005A00028BFA0E80C5048BF0CC05DF804EB8900E0
:1005B00028BF40F8042B08BF704748BF20F8022B23
:1005C00011F0804F18BF00F8012B7047704770473B
:1005D00070472DE9F0470D4699469246044600F1D2
:1005E00024080168880604D5E06921F01001216023
:1005F00000E00120A84201DD471B00E00027A169BF
:100600007A1902EB0900081AA0612078C00602D40A
:100610002046AFF30080002608E0D4E901211AF853
:1006200006009047206A401C761C20624E45F4DB91
:100630002078C0060AD52046AFF3008006E0D4E952
:10064000012130209047206A401C2062381EA7F10B
:100650000107F4DC07E0D4E9012118F80500904710
:10066000206A401C2062281EA5F10105F3DC20460B
:10067000AFF300802078000602D50220BDE8F087A5
:100680000120FBE770472DE9FF4F0C461E464FF057
:10069000FF378BB0D2E90001DDF860800A908A460E
:1006A000C1F30A5505B93D46002108464FF0000048
:1006B000BAF1000F00F4400005DA00EB80004FF4BF
:1006C000400101EA50004FEA9059B9F1010F00DDF5
:1006D000B9460A9850EA4A000ED044F61050A5F2E6
:1006E000FF3545432F14B8F1000F1ED07542291E67
:1006F0001EDDC9F100021CE0B8F1010F4FF000004F
:1007000001D0302103E0F24305E02154401CB04207
:10071000FBDB30460022002121540B99C1F80880F0
:10072000C1E900200FB0BDE8F08FBD1B6D1CDEE7F6
:100730004A4600DA694206A800F0D4FE06AB93E808
:10074000070003AB83E8070050460A9901F017FA47
:100750008DE80700A0F500501F3800900398002D89
:100760000ADD42F21F014A460844002303A9039010
:10077000684601F0C3FC09E0A0F500504A461F3866
:10078000002303A90390684601F0E2FC8DE807000E
:100790000004000C03D04FF0FF30410800E0104689
:1007A000B8F1000F03D00022009215461EE0751E1E
:1007B00005D400F04FFC303262556D1EF9D5B346BA
:1007C0000122084302D000227F1C04E02078302858
:1007D00001D100227F1E002A099784D01DE0112D2F
:1007E00007DA00F037FC303262556D1C50EA010226
:1007F000F5D1084302D00098C8B10EE00021681E70
:1008000005E0235C625C63542254401E491C814213
:10081000F7DBAB46A81B401E0990002004F80B0034
:100820000B98099AC0F80880C0E9002B7AE71126D6
:100830004FF0000857E72DE9F04F88460446D21DD7
:1008400022F0070191B0D1E90001CDE90A0103F0DE
:100850009CF902460B98C00F01D02D2007E02068BC
:10086000810701D52B2002E0202101EAC000032AE4
:10087000099001D0072A05DB03464146204600F0D7
:1008800037FC0BE12078800601D5E06900E0062006
:10089000B8F1650F814606D0B8F1660F18D0B8F1EF
:1008A000670F70D131E00020B9F1110F009001DB2A
:1008B000112301E009F101030AAA01A90CA8FFF71D
:1008C000E2FEDDE90C70002609F10105834647E0F0
:1008D00001204B4600904FF000470AAA01A90CA83E
:1008E000FFF7D1FEDDE90DB00C995D46002610B989
:1008F00009F101000D18B9EB050003D4C0F1FF3672
:1009000009F10105A5EB09002BE0B9F1010F01DAAE
:100910004FF001090020B9F1110F0090484601DDA8
:10092000112300E003460AAA01A90CA8FFF7ABFEB9
:10093000DDE90C704D4600268346207800070AD476
:10094000AB4500DA5D4601A8012D04DD411911F81F
:10095000011C302907D04F4502DA17F1040F04DAE1
:10096000012082460FE06D1EEEE7002F02DCED1B3A
:100970003E4403E0781CA84200DD7D1CB81B00F15A
:10098000010A4FF000472078000703D4AA4501DB95
:100990004FF0FF3A0021B7F1004F0DF143088DF8F9
:1009A000431024D002202B23002F01DA7F422D2375
:1009B0000A21021EA0F1010000DC5FB197FBF1FCEF
:1009C00097FBF1F201FB1C7C17460CF1300C08F888
:1009D00001CDEEE7A8F1010003702188090501D5DA
:1009E000452100E06521A0F1010800F8011C0998EB
:1009F0000FA9A1EB0807FF1D00B10120411901EB70
:100A0000EA70A1693844081A401EA0612078C00627
:100A100002D42046AFF30080099828B1D4E901211F
:100A20009047206A401C20622078C00622D52046CC
:100A3000AFF300801EE0002E04DBB34502DD01A809
:100A4000805D00E03020D4E901219047206A401CFD
:100A50002062761CAAF101005FEA000A0AD100F0C8
:100A6000F1FAC0680168405CD4E901219047206A2E
:100A7000401C2062281EA5F10105DCDC07E0D4E95A
:100A8000012118F8010B9047206A401C2062381E93
:100A9000A7F10107F3DC2046AFF30080032011B07B
:100AA00041E6000001694A1C02610878704700B500
:100AB0008FB0CDE901310021059105497944CDE997
:100AC000031011466846FFF777FC0FB000BD000029
:100AD000E5FFFFFF0A6802F8010B0A60704700009B
:100AE0002DE9FF4F06468BB00878FF2806D0491C39
:100AF0002D2805D000244FF0000908E000200CE06C
:100B00000124F8E709EB8903491C00EB4309087845
:100B1000FF28F7D114B1C9F10000814610780025F3
:100B20002C46AA4629462D2801D02B2804D1521C38
:100B30002D2813D0002082468B461078FF280FD036
:100B40004FF0000C0A21521CA5FB017804FB018127
:100B500005FB0C11C5194BEB0104EEE70120EAE798
:100B6000002108464FF00000BAF1000F02D000EB60
:100B700080004008C0F38157012F01DD4FF0FF379F
:100B80000E9955EA040009EB01080BD04FF0020959
:100B900018F5FA7F16DA4FEACA70002F706008DD88
:100BA000012007E04FEACA70C6E900B00FB0BDE807
:100BB000F08F0020306000F049FAC0F80090182152
:100BC000084616E0B8F5FA7F18DD002F02DAF7487C
:100BD000784401E0F6487844D0E90010C6E90010F6
:100BE00040EACA70706000F031FAC0F80090142139
:100BF00008460FB0BDE8F04F03F057BC002108468F
:100C00004FF00000B8F10001099002DAC7F10002CC
:100C100000E03A4601DAC8F1000106A800F062FCE3
:100C200006AB93E8070003AB83E8070044F23E00FD
:100C30005BEA04010090584604D144F21E012C46A0
:100C40005D460091210C0904014306D1009924045A
:100C500044EA15442D041039009104F07F4101430A
:100C600006D10099240244EA15642D020839009146
:100C700004F07041014306D10099240144EA15743F
:100C80002D01091F009104F04041014306D1009954
:100C9000A40044EA9574AD00891E009104F000415F
:100CA000084304D100986D196441401E00904FF034
:100CB00001033A466846B8F1000FCDE9014503A9A2
:100CC00002DD01F05AFA01E001F02DFABAF1000F4D
:100CD00004460D4601D084F00044002108464FF040
:100CE0000000099940F2FF77484010F00C0F07D13F
:100CF00024F00040284303D0C4F30A50B84212D174
:100D000000F0A4F9C0F80090C4F30A50B8420AD128
:100D1000A8487844D0E90010C6E9001004F000416A
:100D20000843706042E7C6E900543FE72DE9FF4FF2
:100D30001F464FF0000A4FF0FF38454691B0D7E903
:100D40000146CDF83CA000F07DF9C0680168405C28
:100D50001090B96912986D1C8847396A8146884796
:100D60000028F6D1B9F1FF3F0AD0002E24F4D06458
:100D700011DDB9F12B0F08D0B9F12D0F0BD102E025
:100D8000404615B013E744F48064B96912986D1CAD
:100D90008847761E8146600504A901D52D2000E014
:100DA0002B20002E01F1010B0DF130088DF8100001
:100DB0003FDDB9F1690F08D0B9F1490F05D0B9F19C
:100DC0006E0F02D0B9F14E0F1CD13B4601A8009521
:100DD00080E85002DDE912126FF0020003F0CEFB52
:100DE000C11CCED10EE0B96912986D1C88478146AE
:100DF0001398761E44F4007405600F98401C002E72
:100E00000F9016DDB9F1300FEDD0B9F1780F02D0A7
:100E1000B9F1580F0DD10F9801280AD13B46CDE901
:100E20000054DDE91212001F029603F0A5FBC11C5D
:100E3000A7D1109989453ED144F0800406E013996A
:100E4000681CAAF1010A44F400740860B9696D1CB9
:100E50001298761E884730288146F0D02BE01099F2
:100E6000894505D1200603D4761E44F0800418E09D
:100E7000484602F0CCFF08B3761E0DF123018B45E6
:100E800044F4007408D2A9F130000BF8010B2006DD
:100E900007D5AAF1010003E0200602D40AF10100FF
:100EA0008246A00502D51399681C0860B96912989A
:100EB0006D1C88478146002ED1DC53E0002E51DDA9
:100EC000B9F1650F02D0B9F1450F4BD1A00549D555
:100ED000B9696D1C1298761E24F440748847002E60
:100EE00081460CDD2B2804D0B9F12D0F07D144F435
:100EF0008074B96912986D1C8847761E8146E0059A
:100F000001D52D2100E02B2108F8011BCDF8008030
:100F100021E0761E0DF13901884544F400740CD2AD
:100F2000A9F1300010F0FF0088F8000002D100990C
:100F3000884509D908F1010806E0E00501D51E48F9
:100F400001E042F20F708246B96912986D1C884721
:100F5000814613980560002E04DD484602F057FFD5
:100F60000028D6D1F96912988847FF2053468BF89C
:100F7000000088F8000000200A900B9004AA0CA939
:100F80000AA8FFF7ADFDA00502D46FF00100F8E656
:100F900014F0240F12D0E0071CD13868DDE90A12E2
:100FA000031D3B600068C0E9001213E0B83A00007E
:100FB000AA3A00006E390000F1D8FFFF0AA968467E
:100FC00002F012FFE00705D13868009A011D396070
:100FD000006802602846D4E6026811441378016074
:100FE00018467047D16005497944516104497944F4
:100FF000116200211161114600F0BAB8EDFFFFFF48
:10100000ED000000426842B1016811F8013B23B1D4
:10101000521EC0E90012184670470121C160881EA7
:10102000704742685AB1C368016843B983688B420C
:1010300005D0491E521CC0E90012002070474FF035
:10104000FF30704700487047C407002000487047D1
:10105000A407002030B5B0F10A024FEA900E71F1FA
:1010600000034EEA817EB0EB0E0061EB91014FEA86
:10107000101E4EEA017E10EB0E0041EB11114FEAFB
:10108000102E4EEA016E10EB0E0041EB11214FEADB
:10109000104E4EEA014E10EB0E0041EB114140188C
:1010A00041F100014FEAD00040EA41704FEAD1011E
:1010B00010EB80054FEA810444EA907444EB01048C
:1010C0006D1944EB0404521BA3414FF0000348BFC9
:1010D0000A3200D530BD401C41F1000130BD10B5D1
:1010E000044600F09BFA0068005D00F0010010BDAE
:1010F0002DE9F0411F46044603260168072A01F442
:10110000006004DB08B116A505E016A503E008B1F0
:1011100015A500E015A521F010002060A069C01EF3
:10112000A0610FB1401EA0612046AFF300804FB117
:10113000D4E9012138469047206A401C2062C01C37
:10114000206206E0206AFAE7D4E9012115F8010BD4
:101150009047761EF8D22046AFF30080BDE8F081BC
:101160004E414E006E616E00494E4600696E66004B
:101170002DE9F34F4FF0000A0C4656468DB0012082
:101180000C9001F10C000B9062690B9801219047C3
:10119000051E2DD0252D2CD0216A8847C0B162694B
:1011A0000B9801219047216A88470028F7D162698E
:1011B000411E0B98904700E0761CA1690D98884766
:1011C000216A88470028F7D1E1690D988847DBE755
:1011D000A1690D988847A842074601D1761CD3E73C
:1011E000E1690D9888477F1C02D1BAF1000F6FD0DA
:1011F0006CE162690B9800273D46394690472A28E2
:1012000004D162690B98012190470125DFF8D08253
:1012100062690B9801219047A0F130010A290AD296
:101220004745E5DC07EB870100EB4107303FDFD4A2
:1012300045F01005ECE7E90601D46FF000476C2893
:101240000AD04C2814D0682815D06A280DD07428EC
:101250001CD07A281AD01DE062690B9801219047B2
:101260006C2802D045F0040514E045F002050DE0BD
:1012700045F020050AE062690B9801219047682833
:1012800002D045F0080505E045F4006562690B9859
:1012900001219047C4E9015765283DD019DC582841
:1012A0007AD00CDC452837D004DC252826D041280C
:1012B0009ED131E046282FD0472899D12CE05B28D9
:1012C00077D0612828D063287CD0642823D15AE0C5
:1012D000F7E06F2848D008DC66281DD067281BD0AF
:1012E000692821D06E2816D127E0702845D07328B0
:1012F00068D0752847D078280DD14DE0A1690D98A8
:101300008847252805463FF469AFE1690D9888476D
:101310006D1C3FF46AAFD9E00D9923466A466FF021
:10132000010003F027F9C6E045F0400023464FF0E6
:1013300000026060A80736D43EE0E8077FF447AFBC
:101340002068011D21600068290501D506701BE792
:10135000290701D5068017E7A90703D5F117C0E9CA
:10136000006111E706600FE745F0400023464FF0AB
:1013700008026060A80716D41EE040F60E0125EAB8
:101380000100606016E045F0400023464FF00A027D
:101390006060A80707D40FE045F040006060A80730
:1013A00008D5234610220D996FF00100AFF300809D
:1013B00081E007E0102223460D996FF00100AFF3A2
:1013C000008078E04FF0000963284F46C8464B463E
:1013D000CB4602D05B2807D039E02079C00601D483
:1013E0000120A060012732E06269D4F80CB00B98AC
:1013F000012190475E2807D14FF0010949466269F3
:10140000D4F80CB00B989047216939B900210A46ED
:1014100003AB43F82120491C0829FADBD8B3216922
:1014200049B308F1010862690B98012190475D28D2
:10143000F4D1B9F1000F09D0002003A951F8202000
:10144000D24341F82020401C0828F7DB03AB206979
:10145000002820794FEA40701ED05B462246CDF826
:101460000080CDE901970D9900286FF0010020DA86
:10147000AFF300801FE0C11703AA00EBD1614B114D
:1014800021F01F0102EB8302411A136801208840FA
:1014900003431360C7E719E00D99224600286FF057
:1014A0000100009702DAAFF3008004E0AFF30080A0
:1014B00001E0AFF3008000280ADA401C06D10C9846
:1014C00020B14FF0FF300FB0BDE8F08F5046FAE783
:1014D000E90701D10AF1010A064400200C9053E605
:1014E000CCCCCC0C2DE9F047814616468AB0354865
:1014F00078440DC88DE80D0032487844801C03AC58
:101500000DC884E80D0041F69B300844372190FB5C
:10151000F1F290FBF1F5A5F1800501FB12041B3CF3
:1015200002D56442012000E00020DFF898A0804648
:101530000027FA44AAF1BE0A0EE0E0070AD03246BC
:10154000684607EB470101230AEB810100F000FE2A
:101550008DE8070064107F1C002CEED1194F7F44EA
:10156000AE3F19E0E80715D007EB04100DF1180A9B
:1015700090E80E008AE80E00C068F04201D1981988
:1015800008903246012306A903A800F0E1FD03AB51
:1015900083E807006D10641C002DE3D14FF00103B8
:1015A00032466946B8F1000F03A802D000F0A6FD4C
:1015B00001E000F0CDFDC9E90001C9F808200AB03A
:1015C000BDE8F0875831000000487047A4070020AC
:1015D0007546FFF7F9FFAE4605006946534620F011
:1015E0000700854618B020B5FEF748FEBDE820404C
:1015F0004FF000064FF000074FF000084FF0000BCF
:1016000021F00701AC46ACE8C009ACE8C009ACE881
:10161000C009ACE8C0098D467047000010B5FFF75F
:1016200011FD001D10BD00BF7D29000010B5FFF7A2
:101630000DFD006810BD10B50446FFF707FD0460FE
:1016400010BD00002DE9FF4F1F464FF03C0987B049
:101650004FF00042DDE9141001F10108DDF858A057
:1016600002EA405003900020059083460546044658
:101670000490B969461E08988847AAF1010A0290A9
:10168000BAF1000F3BDD02982E2815D0102100F092
:1016900060FA00282EDB4FF0010B0599014317D0AB
:1016A000B9F1000F0BDB4A46C11700F03FFA0543C2
:1016B0000C43A9F1040905E0012004900BE008B1F6
:1016C00045F0010501200590049820B9361D02E07F
:1016D000049800B1361FB969089808F101088847D5
:1016E000BBF1000FAAF1010A0290C9D00999C1F813
:1016F0000080C5E70298702808D0502806D0F96904
:1017000008988847BBF1000F14D04FE000200290EA
:101710000120BBF1000F049009D0B969089808F1C5
:1017200001088847AAF10109B9F1000F07DCF9693E
:10173000089888476FF001000BB0BDE8F08F2B28A8
:1017400004D02D280CD14FF0FF300490B9690898CF
:1017500008F101088847A9F10109B9F1000FE6DD98
:10176000411CE4D00A2100F0F4F90028DFDB0299E3
:1017700008F1010801EB810100EB41000290B96919
:10178000089888470A2100F0E4F9099AA9F10109AB
:10179000B9F1000FC2F8008001DD0028E7DAF9692D
:1017A000089888470499029800FB016655EA0400EE
:1017B00004D004F04041090002D006E0039898E00C
:1017C000A40044EA9574AD00B61E04F00041080080
:1017D00002D16D196441761E159810F0240F03D0C4
:1017E0004FF00B095C4803E04FF028096FF07D00D3
:1017F0008246564507DAAAEB06018944B9F1410F42
:1018000001DD4FF0410901200021A9F1010200F0A2
:101810008DF9024628400B462140084301D00121A2
:1018200000E00021501E029143F1FF312840214089
:10183000084301D0012000E000200299834651EACC
:101840000B014FD0002108464FF00000039900F42F
:10185000400039B100EB80004FF4400100EBD07044
:1018600001EA60008015012802DD4FF0FF3000E042
:1018700013D0401C36D0029860B3BBF1000F0CD1DE
:101880004A460120002100F051F928402140084338
:1018900001D0012000E00020E0B101204A460021F3
:1018A00000F044F9034640190A4661412D1A8C4163
:1018B00011D3B9F1400F09DD159810F0240F02D0B3
:1018C000AAF1340603E0AAF1170600E0761C002511
:1018D0004FF0004406E05B1E42F1FF3220EA0305B0
:1018E00021EA0204CAF10100B04206DA1B4903985A
:1018F00008430190002000900EE0039AC4F3D32126
:10190000E80A0A43164940EA44500A433146CDE901
:101910000002684602F071FA159810F0240F0BD0FF
:101920001598C00715D13868DDE90012031D3B602A
:101930000068C0E900120CE002A8694602F054FAFF
:101940001598C00705D13868029A011D39600068F2
:1019500002604046F0E6000002FCFFFF0000F07F5E
:101960000000F03F2DE9FF4F92461D4685B04FF035
:101970000041DDE9124BDDE914727F1E01EA4B5094
:10198000414940F0FF4940EA0108002122F02000CF
:101990004928049102D04E2828D04CE03BA00126D3
:1019A00007C88DE80700A9690698641C88477F1E50
:1019B000014606D41DF8060018B121F0200181422D
:1019C0000BD0E96906988847032E34D0082E32D010
:1019D0006FF0010009B0BDE8F08F761C032E01D036
:1019E000082EE0D1601CCAF80000DCE7A96906985F
:1019F000641C88477F1E2AD420F02000412826D16D
:101A0000A9690698641C88477F1E20D420F0200016
:101A10004E281CD1A9690698641C88477F1E48F48B
:101A2000002849F48009CAF8004001D4282806D0CB
:101A3000E969069888475FEACB7012D022E0A9696D
:101A40000698641C88477F1E01D4002803DAE969E0
:101A500006988847BCE72928F1D1641CCAF80040E1
:101A6000E9E71BF0240F07D028680499031D2B60B9
:101A70000068C0E9001805E02868021D2A600068B7
:101A8000C0F800902046A5E70000F07F494E464987
:101A90004E4954590000000010B50446AFF30080D1
:101AA0002046BDE81040FEF7D4BB00004FF0013CDB
:101AB00050F8042B51F8043B9A4221D1A2EB0C03BD
:101AC000934313EACC1317D150F8042B51F8043B7D
:101AD0009A4215D1A2EB0C03934313EACC130BD11A
:101AE00050F8042B51F8043B9A4209D1A2EB0C03A5
:101AF000934313EACC13DBD04FF00000704700BFD4
:101B0000D01A01BAB1FA81F101F0180122FA01F0FC
:101B1000CB40C1F12001DBB2C0B2C01A2CFA01F3F4
:101B2000D11A914311EAC311E6D17047B2F12003F3
:101B30000AD5C2F1200301FA02F120FA03F300FAF8
:101B400002F041EA0301704700FA03F14FF0000090
:101B500070473A2800D2303820F02002412A01D3C1
:101B6000A2F13700884201D34FF0FF3070470000E8
:101B700001491820ABBEFEE72600020070475FEA6D
:101B8000400C08BF91F0000F4FEA8C234FEAC122AE
:101B900043EA51514FEA1C5018BF00F5F0404FEA9C
:101BA000300018BF41F000415FEA6C5C00F0298012
:101BB000BCF1FF3F08BF40F080407047130C06BFE8
:101BC00012044FF0100C4FF0000C130E04BF120261
:101BD0000CF1080C130F04BF12010CF1040C930F4D
:101BE00004BF92000CF1020CD30F04BF52000CF1A1
:101BF000010C11464FF00002A0F11F00A0EB0C00F9
:101C0000704711F0004F08BF704731F000413FF4BA
:101C1000D5AF0B0C06BF09044FF0100C4FF0000CB1
:101C20000B0E04BF09020CF1080C0B0F04BF0901D5
:101C30000CF1040C8B0F04BF89000CF1020CCB0FCC
:101C400004BF49000CF1010CCCF12003A0EB0C0007
:101C500022FA03F302FA0CF241EA030100F1010057
:101C6000704720F07F4C80EA030023F07F47ACEB05
:101C7000070303F57C5300F0004003F1FF032DE957
:101C800080494FEA154B09B44FEA144325EA0B4E3D
:101C900024EA03480FF2042606EB132749083E788E
:101CA0005FEA320203FB0667C7F5000707FB06F68B
:101CB0004FEA54374FEAD64606F1020607FB066C98
:101CC000CCF1005C4FEA1C472CEA074C07FB06F4FA
:101CD0000CFB06F504EB15464FEA961634BF0020C0
:101CE0004FF000404FEAD13706FB07FC4FEA1C4C8F
:101CF0000CFB0BF7D21B03FB0CF761EB07010CFB92
:101D00000EF7B0EB074072EB17420CFB08F734BF3D
:101D1000A2EB0742B2EB074261EB17414FEA0C44DA
:101D20004FEA910706FB07FC4FEA1C4C0CFB0BF734
:101D3000B0EBC74072EB573203FB0CF734BFA2EB9A
:101D4000C742B2EBC74261EB57310CFB0EF7B0EB69
:101D5000C70072EB57720CFB08F734BFA2EBC70247
:101D6000B2EBC70261EB5771039F4FEA816141EA11
:101D7000921104EBCC044FEAD1374FEA826206FBA2
:101D800007FC42EA90124FEA80604FEA1C4C0CFBC1
:101D90000BF7D21B03FB0CF761EB07010CFB0EF7F3
:101DA000B0EB074072EB17420CFB08F734BFA2EB15
:101DB0000742B2EB074261EB17414FEA8C554FEAFD
:101DC000910704EB9C2406FB07FC4FEA1C4C0CFB20
:101DD0000BF7B0EBC74072EB573203FB0CF734BF85
:101DE000A2EBC742B2EBC74261EB57310CFB0EF7D7
:101DF000B0EBC70072EB57720CFB08F734BFA2EBD5
:101E0000C702B2EBC70261EB577115EB4C254FEAE5
:101E1000816141EA92114FEA82624FEAD13742EA88
:101E2000901206FB07FC44F100044FEA80604FEA81
:101E30001C4C0CFB0BF7D21B03FB0CF761EB0701EF
:101E40000CFB0EF7B0EB074072EB17420CFB08F7E8
:101E500034BFA2EB0742B2EB074261EB174115EB2F
:101E60001C154FEA813141EA92414FEA823242EA3F
:101E700090424FEA80304FEA0C7644F1000448EA81
:101E800003434EEA0B484FF0000EB2EB080C71EB27
:101E9000030724BF624639464EEB0E0E4FF0000B8F
:101EA0000018524149414BEB0B0BB2EB080C71EBA4
:101EB00003077BF1000B24BF624639464EEB0E0E42
:101EC0004FF0000B0018524149414BEB0B0BB2EBAA
:101ED000080C71EB03077BF1000B24BF6246394607
:101EE0004EEB0E0E51EA020718BF46F0010616EB44
:101EF0000E7655F1000254F1000103D5BDE88901C9
:101F0000BDE80088BDE88901BDE80048B619524126
:101F100041EB0101A3F10103704780807F7E7D7C4E
:101F20007B7A7978777676757473727171706F6E6B
:101F30006E6D6C6C6B6A6A69686867666665646416
:101F4000636362616160605F5F5E5E5D5D5C5C5BA0
:101F50005B5A5A595958585757565655555554540F
:101F6000535352525251515050504F4F4F4E4E4D6D
:101F70004D4D4C4C4C4B4B4B4A4A4A4949494848B9
:101F800048474747474646464545454444444443F9
:101F900043434342424242414141000046EA064631
:101FA000A3F570534FEA164646EA42564FEAD2224C
:101FB00042EA415210B54FEAD121A3F1010300F0EA
:101FC0002FF820F0004000F1020C00F0004701EB78
:101FD00000501146BCF5006F40EA070000D210BD6A
:101FE000BAF1000F0AD01CB503B44FF004004FF053
:101FF00004014FF000000FBCBDE810404FF000019D
:10200000BBF1010FB9BF04484FF0FF310348002175
:1020100040EA070010BD00BFFFFFEF7F0000F07F28
:10202000002B9C4630D477002BD01CB54FEA3707E5
:1020300003B44FF010004FF01001BAF1000F06D0BA
:10204000BCF1000FDCBF40F0080040F008014FF089
:1020500000000FBCBDE810400BF1010BBBF1010FFC
:1020600008BF5FEA170722BF12F1010211F1010157
:102070004FF0004143F1000300F0004043EA00004C
:102080007047F9D35708D0E746EA064613F1400FE8
:102090004FEA16461FDD13F1200FDFBF16430A4635
:1020A000002120335B42BED0C3F1200746EA06463A
:1020B00002FA07F74FEA164646EA0706C3F1200779
:1020C00022FA03F201FA07F721FA03F14FF00003B5
:1020D00042EA0702A7E746EA020646EA06464FEA50
:1020E000164646EA0106BCBF46EA0646360C4FF0E5
:1020F00000034FF000024FF0000194E72DE9804CFF
:102100009A46934670B491E8380007C831EA400C0B
:1021100048BF34EA430C03D5FFF7A3FDFFF780FF68
:10212000F0BCBDE8008C2DE9804C9A46934670B413
:1021300091E8380007C831EA400C48BF34EA430C44
:1021400003D5FFF78EFDFFF729FFF0BCBDE8008C3B
:102150002DE9804C9A46934670B491E8380007C840
:1021600010F0804F08BF13F0804F03D100F01AF831
:10217000FFF756FFF0BCBDE8008C2DE9804C9A4675
:10218000934670B491E8380007C810F0804F08BF3C
:1021900013F0804F03D100F005F8FFF7FFFEF0BC0D
:1021A000BDE8008C20F07F4780EA030023F07F4CDD
:1021B00007EB0C03A3F57C5300F00040A3F1FE03F2
:1021C00092F0000F00F0B38095F0000F00F07780E0
:1021D0002DE901494FEA11404FEA144621EA00482F
:1021E00000FB06FC24EA064708FB06F607FB08F896
:1021F00000FB07F718EB06484CEB164C4FEA124B66
:1022000018EB07484FEA15464CEB174022EA0B4EF5
:102210000BFB06FC25EA06470EFB06F607FB0EFE47
:102220000BFB07F71EEB064E4CEB164C4FF000066F
:102230001EEB074E4CEB174B18EB0B0840F1000060
:1022400018EB0E0B58EB000840F100008F1A4FF00E
:1022500000013CBFC943661B14BFB5EB040C002151
:102260003CBFC943F61B4FEA17444EEA8E0E27EADD
:1022700004454FEA1C4704FB07622CEA074C05FBA8
:1022800007F70CFB05F604FB0CFC16EB074642EBCC
:10229000174216EB0C4642EB1C421BEB060658EBB2
:1022A0000202414146EA9E0601D5BDE80189B61900
:1022B000524141EB0101A3F10103BDE801894FEA5D
:1022C00014454FEA114724EA054621EA074C05FB6D
:1022D00007F406FB07F70CFB06F105FB0CFC11EB02
:1022E000074144EB17444FEA124711EB0C4144EB12
:1022F0001C4422EA074C05FB07F206FB07F70CFB20
:1023000006F605FB0CFC16EB074642EB174216EBF4
:102310000C4642EB1C456A1854F1000148BF704757
:10232000B619524141EB0101A3F10103704795F049
:10233000000F37D04FEA11424FEA144721EA024614
:1023400024EA074C02FB07F106FB07F70CFB06F437
:1023500002FB0CFC14EB074441EB17414FEA154715
:1023600014EB0C4441EB1C4125EA074C02FB07F53A
:1023700006FB07F70CFB06F602FB0CFC16EB074608
:1023800045EB174516EB0C4645EB1C42121951F173
:10239000000148BF7047B619524141EB0101A3F15A
:1023A000010370474FEA14454FEA114724EA0546F6
:1023B00021EA074C05FB07F106FB07F70CFB06F2C9
:1023C0004FF0000605FB0CFC12EB074241EB1741F6
:1023D00012EB0C4251EB1C4148BF7047921841EB85
:1023E0000101A3F101037047FEE70000014800F07E
:1023F000CDB80000FC06002001681823CAB2103ACC
:10240000B2FBF3F2054B6FF30901032A9B5CC36532
:1024100000D9091D8165084670470000B0450008D5
:1024200010B5014600208B698A6A4FF0C07453B121
:10243000B3F5005F15D072B1012A0CD0022A0AD080
:10244000032A09D104E01AB1012A06D0022A03D1D5
:10245000C96AC90100D5012010BDC96AA142FAD0DC
:1024600010BD002AF7D0012AF2D0022AF3D0032AA5
:10247000F3D010BD30B50468256825F480252560AB
:10248000046863608368402B036803D09960006828
:10249000C26030BD9A600068C16030BD704772B6DE
:1024A000FEE700002DE9F041FDEEC00A4FF47A711D
:1024B0002A4C10EE900A2DED028BA0B090FBF1F2A9
:1024C000904642F21070A261424300EE902A6421CD
:1024D000F8EEE00A70EE600AFDEEE00A10EE900AF7
:1024E00090FBF1F707EBC70000EB071002EB800051
:1024F00000EE900AE761F8EEE00A30EE600ABDEE09
:10250000C08A84ED088A606901F054FF05460E46D2
:10251000206901F04FFF0A4602A93B4681E86500A9
:102520008DED008A08F103020DA106A8FDF730FF2A
:1025300006A8FEF705F882B24FF0FF34234606A93D
:10254000104800F0FFFF234603220FA10D4800F0C2
:10255000F9FF20B0BDEC028BBDE8F0810000002047
:102560000D0A54696D653D25643A25643A25642059
:102570004C6174203D25662C204C6F6E673D2566AE
:1025800000000000B80600200D0A0A002DE9F843FB
:1025900004464FF00009CDF8009063484FF41651FF
:1025A000A56D0068B0FBF1F72E6894F85C10082068
:1025B00000FA01F131420FD021680A6852070BD5A9
:1025C0000A6822F004020A6094F85C108840A8604F
:1025D000606D40F00100606594F85C104FF00108F8
:1025E00008FA01F0304208D021684969090604D58B
:1025F000A860606D40F00200606594F85C100420F3
:102600008840304208D021680968890704D5A8604D
:10261000606D40F00400606594F85C101020884004
:10262000304218D021680968090714D5A8602068CD
:102630000168490304D50068000308D5A16C07E0D0
:102640000168C90503D4016821F008010160216C0B
:1026500009B12046884794F85C1020208840304219
:1026600031D021680968C9062DD5A86094F83500D5
:1026700005282068016806D0490347D50068000393
:102680001DD4616C1CE021F01601016020684169D5
:1026900021F080014161206C08B9A06C20B1206854
:1026A000016821F00801016094F85C103F20884027
:1026B000A86084F8358084F83490216D1FE0E16BC8
:1026C00009B120468847606D00282BD0606DC00797
:1026D00014D0052084F835002068016821F001013C
:1026E00001600098401C0090B84203D82068006840
:1026F000C007F6D184F8358084F83490E16C002965
:1027000010D001B02046BDE8F04308470168C90574
:10271000D5D4016821F01001016084F8358084F877
:102720003490CCE7BDE8F883300000202DE9F0417B
:10273000044600F09FF906465CB1022084F835009B
:10274000002584F834502068016821F001010160FF
:102750000DE00120BDE8F08100F08CF9801B052818
:1027600005D920206065032084F83500F2E7206851
:102770000068C007F0D12268116820480140D4E900
:1027800001031843D4E903363343184363691843FC
:10279000A3691843E3691843236A18430843616A2D
:1027A000042903D1D4E90B131943084310602068AE
:1027B0004069666A20F0070130460E43012704286D
:1027C0000CD1A06A0643E06A40B12046FFF728FE1C
:1027D00020B14020606584F83570BAE72068466112
:1027E0002046FFF709FE94F85C203F21914081606C
:1027F000656584F835700020ACE700003F8010F07C
:102800002DE9F0410446866D90F83400002501283A
:102810000DD0012084F8340094F835700020012F89
:1028200007D084F8340002252846BDE8F081022054
:10283000FBE7022784F8357060652046FFF71AFE33
:1028400094F85C103F208840B0602068016841F037
:1028500016010160206C20B12068016841F0080178
:1028600001602068016841F001010160DCE70000BF
:1028700070B5044600F0FEF80546601C02D004481E
:102880000078044400F0F6F8401BA042FAD370BD73
:10289000240000202DE9F84FDFF8B8A10022012420
:1028A0000AF1040B03254FF00F090BF1040E00BFD2
:1028B0000B6804FA02F63340B34273D10F7907F084
:1028C0000307012F01D0022F16D187684FEA420873
:1028D00005FA08FC27EA0C07D1F80CC00CFA08FC32
:1028E0004CEA070CC0F808C04768B7430E79C6F336
:1028F000001696403E4346600E79F643B6070DD06B
:10290000C768560005FA06FC27EA0C07D1F808C08C
:102910000CFA06FC4CEA070CC0F80CC00E7906F065
:102920000306022E10D1D60800EB8608D8F82060E6
:1029300057074FEAD76C09FA0CF7BE430F6907FA3D
:102940000CF73743C8F8207006684FEA420C05FAC6
:102950000CF7BE430F7907F0030707FA0CF737436C
:1029600007604E6816F4403F6DD03B4E376847F421
:1029700080473760366822F0030706F480460096E9
:10298000364E07EB060CDCF8086897073F0F09FA8C
:1029900007F826EA0806DFF8C880404503D14FF063
:1029A00000081EE04FE0DFF8BC80404502D14FF048
:1029B000010816E0DFF8B080404502D14FF0020870
:1029C0000FE0DFF8A880404502D14FF0030808E08F
:1029D000DFF89C80404502D14FF0040801E04FF041
:1029E000070808FA07F848EA0608CCF80888DAF871
:1029F00000605746D1F804C09E435FEACC3C00D546
:102A00001E433E60DBF800605F46D1F804C09E4381
:102A10005FEA8C3C00D51E433E60DEF800607746DE
:102A2000D1F804C09E435FEACC2C00D51E433E6023
:102A3000084F0C373E68D1F804C09E435FEA8C2CE7
:102A400000D51E433E60521C102AFFF431AFBDE892
:102A5000F88F0000003C0140443802400030014043
:102A6000000002400004024000080240000C024046
:102A700000100240014880687047000024000020D8
:102A80000248816802781144816070472400002068
:102A90000B4810B5016841F400710160016841F410
:102AA00080610160016841F480710160032000F0E1
:102AB00089F80F2000F006F800F03EF8002010BD65
:102AC000003C024010B5014688B000221A2000F0F8
:102AD00059F81A2000F048F813480024016841F41E
:102AE00080210160006805A900F4802006906846F6
:102AF00000F014F900F042F90C490D4AB0FBF1F175
:102B00000C48491E026040F2E732C0E90324C0E9E4
:102B1000011400F02DFB10B1012008B010BD0548D4
:102B200000F054FBF9E700004438024040420F0037
:102B3000004801405C0700200A4808B5016841F4DC
:102B400080410160006800F4804000900548001F4B
:102B5000016841F080510160006800F080500090F1
:102B600008BD000044380240002809DB00F01F02C5
:102B7000012191404009800000F1E020C0F80011DF
:102B800070470000F0B40E4B1B680C46C3F30223E1
:102B9000C3F10705042D00D90425191D072901D209
:102BA000002300E0DB1E012606FA05F1491E214044
:102BB00099409E40761E16403143F0BC00F0FDBFA8
:102BC0000CED00E0064900F0070208684FF6FF032D
:102BD000184040EA0220034A104308607047000092
:102BE0000CED00E00000FA052DE9F0470E46050067
:102BF00065D0DFF81481D8F80000F7B200F00700C4
:102C0000B04207D288F80070D8F8000000F0070042
:102C1000B04254D128683D4C810712D5400703D5F6
:102C2000206840F4E05020602878000703D5206831
:102C300040F4604020602068A96820F0F00008435C
:102C400020602878C0072DD03049686808390128ED
:102C500012D0022813D0032811D00968890700294F
:102C60002DDA216821F0030101432160FFF702FF03
:102C7000814641F2883A0EE009688903EFE7096866
:102C80008901ECE7FFF7F6FEA0EB0901514502D9F7
:102C90000320BDE8F0872068696800F00C00B0EB05
:102CA000810FEFD1D8F80010404601F00701B14282
:102CB00007D90770006800F00700B04201D001207A
:102CC000E7E72878400705D52068E96820F4E05058
:102CD000084320602878000706D52068296920F479
:102CE000604040EAC100206000F058F82168084ABE
:102CF000C1F30311515CC8400649086006480068EA
:102D0000FFF7E0FE0020C4E7003C02400838024024
:102D1000B845000830000020280000200F22026083
:102D20000C4A136803F003034360136803F0F003D5
:102D30008360136803F4E053C36012684FF4E053F8
:102D400003EAD20202610448006800F0070008604C
:102D50007047000008380240003C02400448054922
:102D600000680968044AC1F38221515CC840704779
:102D70003000002008380240C845000804480549D2
:102D800000680968044AC1F34231515CC840704789
:102D90003000002008380240C8450008154810B52A
:102DA000006810F00C02144813D01449042A0FD004
:102DB000082A0ED10F4C241F2268236802F03F021C
:102DC0005B0207D52068C0F38810A0FB010106E074
:102DD000084610BD2168C1F38811A1FB0001002342
:102DE000FDF75EFA2168C1F30141491C4900B0FBBF
:102DF000F1F010BD083802400024F40040787D0155
:102E00002DE9F84F04006ED02078DFF84C93C0070E
:102E1000A9F104054AD009F104000168C1F3810158
:102E2000012908D00068C0F3810002280AD1D9F82E
:102E30000000400206D52868800337D56068002866
:102E4000E1D033E06068B0F5803F10D0B0F5A02F3E
:102E5000286810D020F480302860286820F4802072
:102E600028606068A8B1FFF705FE06460DE02868F7
:102E700040F48030F4E740F480202860F7E700BF9A
:102E8000FFF7F8FD801B642873D828688003F7D506
:102E90000CE0FFF7EFFD064605E000BFFFF7EAFD97
:102EA000801B6428F0D828688003F7D42078DFF8E6
:102EB000AC8280074FF0000A3ED5A748001D01688C
:102EC00011F00C0F08D00068C0F3810002280BD16C
:102ED000D9F80000400207D42868800716D5E068BA
:102EE000012800D112E033E1E068B8B10120C8F850
:102EF0000000FFF7BFFD064605E000BFFFF7BAFD83
:102F0000801B0228C0D828688007F7D52868216967
:102F100020F0F80040EAC10028600DE0C8F800A0E9
:102F2000FFF7A8FD064604E0FFF7A4FD801B02287A
:102F30001FD828688007F7D42078000722D5864F4D
:102F400087486169703771B101210160FFF792FD17
:102F5000064604E0FFF78EFD801B022809D838687A
:102F60008007F7D50EE0C0F800A0FFF783FD064606
:102F700005E082E0FFF77EFD801B02287DD83868DF
:102F80008007F7D42078400768D5DFF8CCB1002758
:102F90000BF13C0BDBF80000C0000BD4DBF8001099
:102FA00041F08051CBF80010DBF80000012700F061
:102FB000805000906B4E3068C00510D4306840F4EB
:102FC00080703060FFF756FD009005E0FFF752FD7E
:102FD0000099401A022850D83068C005F6D55E4ED8
:102FE000A0686C3601280FD00528306810D020F07A
:102FF00001003060306820F004003060A068B8B193
:10300000FFF738FD00900FE0306840F00100F4E772
:1030100040F004003060F7E7FFF72CFD0099411AFB
:1030200041F28830814266D830688007F4D50EE0DE
:10303000FFF720FD009007E0FFF71CFD0099411A03
:1030400041F28830814256D830688007F4D42FB1DD
:10305000DBF8001021F08051CBF80010A069C8B354
:103060003D49091D0968C1F3810102294AD002289E
:10307000504607D0C8F8600000E03CE0FFF7FAFCDB
:1030800004463BE04746C8F86000FFF7F3FC0646FD
:1030900005E000BFFFF7EEFC801B02282BD8286854
:1030A0008001F7D4D4E907010843A16A2E4A4908F0
:1030B00002EB0141626A41EA8211084394F82C1044
:1030C00040EA0161C9F8001001203866FFF7D2FC20
:1030D000044606E03EE000BFFFF7CCFC001B0228E0
:1030E00009D828688001F7D534E000BFFFF7C2FC9B
:1030F000001B022802D90320BDE8F88F2868800150
:10310000F4D427E00128F7D0D9F80000E26900F4F0
:10311000800191421CD1226A00F03F01914217D1F7
:1031200047F6C071626A0140B1EB821F10D1A26AFA
:103130004FF0FF3300F4403103EB5202B1EB024F8A
:1031400006D194F82C1000F07060B0EB016F01D044
:103150000120D1E70020CFE70438024000004742B9
:10316000800E4742007000400000FFFF704770472C
:1031700010B5040003D094F83D0010B107E0012021
:1031800010BD002084F83C00204600F01EF802200C
:1031900084F83D00211D206800F0F8FA012084F831
:1031A000460084F83E0084F83F0084F8400084F82C
:1031B000410084F8420084F8430084F8440084F815
:1031C000450084F83D00002010BD704790F83D1088
:1031D000012901D001207047022180F83D100168CB
:1031E000CA6842F00102CA6000680E4988420ED0E7
:1031F000B0F1804F0BD00C49884208D00B4988426F
:1032000005D00B49884202D00A49884204D181681E
:1032100001F00701062903D0016841F001010160B6
:1032200000207047000001400004004000080040FA
:10323000000C004000400140704770B50446006833
:1032400001694FF00005C943890715D4C168C94316
:10325000890711D4E91E0161012020772068806967
:103260008007204602D0FFF7E7FF04E000F098F85F
:10327000204600F096F8257720680169C943490780
:1032800017D4C168C943490713D46FF00401016121
:10329000022020772068806910F4407F204602D009
:1032A000FFF7CAFF04E000F07BF8204600F079F851
:1032B000257720680169C943090716D4C168C94345
:1032C000090712D46FF008010161042020772068FB
:1032D000C0698007204602D0FFF7AEFF04E000F08F
:1032E0005FF8204600F05DF8257720680169C94342
:1032F000C90617D4C168C943C90613D46FF01001B9
:103300000161082020772068C06910F4407F2046C2
:1033100002D0FFF791FF04E000F042F8204600F0F1
:1033200040F8257720680169C943C90708D1C168F9
:10333000C943C90704D1891E0161204600F032F853
:1033400020680169C943090609D4C168C94309064F
:1033500005D46FF0800101612046FFF707FF206868
:103360000169C943490609D4C168C943490605D45E
:103370006FF040010161204600F01EF820680169ED
:10338000C94389060BD4C168C943890607D46FF0C5
:10339000200101612046BDE87040FFF7E8BE70BD26
:1033A0007047704700680349884201D1FFF768BB46
:1033B000704700000048014070477047704770B583
:1033C000040004D094F83D00002510B106E001206F
:1033D00070BD84F83C50204600F022F8242084F888
:1033E0003D002068C16821F40051C160204600F012
:1033F000C1FA2068016921F49041016120684169A6
:1034000021F02A0141612068C16841F40051C16086
:103410002564202084F83D0084F83E00002070BD23
:10342000F0B587B0064614216846FDF7A8F8DFF826
:10343000C0C0306800252F490222032307272E4CE5
:10344000604536D12B481430D0F800C04CF0100C39
:10345000C0F800C0006800F010000590086840F057
:10346000010008600868694600F0010005905802F4
:103470008DE82500CDE903372046FFF70BFA204CF5
:103480001E4820604FF00060C4E901054014C4E903
:10349000035080106561C4E90650256220466562CC
:1034A000FFF744F908B1FEF7FAFFB463A66307B06B
:1034B000F0BD144EB042FAD10E481030066846F402
:1034C00000360660006800F400300590086840F09F
:1034D000010008600868694600F0010005900C20B2
:1034E0008DE82500CDE903372046FFF7D3F9DEE765
:1034F00000100140303802400000024040640240A9
:10350000FC0600200044004090F83E30202B0ED1F5
:1035100059B152B190F83C30012B08D0012380F80A
:103520003C300023036300F0ABBA01207047022057
:10353000704700000149012008707047000000201A
:10354000704700002DE9F843044690F83D001F46FF
:1035500016460D4620284CD1C5B1BEB194F83C00AA
:10356000012846D0012084F83C004FF00008C4F840
:103570004080212084F83D00FFF77CFAA684814634
:10358000E684A068B0F5805F03D004E00120BDE8C8
:10359000F883206928B12E465FF0000584F83C804E
:1035A0000EE00026FAE78021204600F0B1FAA0B92B
:1035B000AEB116F8010B21684860E08C401EE08433
:1035C000E08C4B464FF0000200970028EBD14FF003
:1035D0004001204600F09CFA30B10320D7E735F8CF
:1035E000020BC0F30800E6E7202084F83D0000202D
:1035F000CDE70220CBE7FEE7094808B5016841F4B2
:10360000800101600068002200F4800000901146F3
:103610003A20FFF7B7FABDE808403A20FFF7A4BA0E
:10362000303802400D4808B5016841F004010160DE
:10363000016801F004010091016841F0800101601E
:10364000016801F080010091016841F00101016011
:10365000006800F00100009008BD00003038024012
:103660000C4810B50A4901604FF416514160002121
:1036700081600C22C160C0E904128161C161FFF761
:103680009EFE002803D0BDE81040FEF708BF10BD25
:1036900000100140740600200C4810B50A49016072
:1036A0004FF416514160002181600C22C160C0E9D5
:1036B00004128161C161FFF782FE002803D0BDE8DA
:1036C0001040FEF7ECBE10BD00440040B8060020DC
:1036D000FEE7FEE7704770477047000030B593B0D3
:1036E00030216846FCF74BFF14210CA8FCF747FF7C
:1036F0001D480024016841F080510160006800F01D
:10370000805011901948016821F4404141F4004172
:1037100001600068022500F44040119001200390F0
:1037200010200490009506950820CDE9074054200C
:10373000CDE9090504200B906846FFF761FB08B14D
:1037400072B6FEE70F20CDE90C054FF48050CDE9AD
:103750000E4002210CA81094FFF746FA002801D071
:1037600072B6FEE713B030BD403802400070004032
:103770000248016841F470010160704788ED00E083
:103780000148FFF75ABD00005C070020F0B5026851
:103790001D4B1E4C9F031E4D1E4E984207D0B84233
:1037A00005D0A04203D0A84201D0B04204D122F0FB
:1037B000700C4A6842EA0C02984210D0B8420ED00F
:1037C000A0420CD0A8420AD0B04208D0124CA0426D
:1037D00005D0124CA04202D0114CA04203D122F4D9
:1037E0004074CA6822434C6922F08002224302607E
:1037F0008A68C2620A688262984201D109690163DB
:1038000001214161F0BD00000000014000040040C2
:1038100000080040000C004000400140004401400E
:103820000048014070B5846B2068406994F83D10F1
:10383000C0F3C0100025212904D118B1E584204629
:1038400000F08AF82068406994F83E10C0F38010B8
:10385000222904D118B1E585204600F056F8206CE5
:1038600040F0100020642046FFF7A8FD70BD10B5A1
:103870000146806B09680968C9052FD40021C185FC
:1038800001680C3151E8002F22F4807241E80023D6
:10389000002BF5D10168143151E8002F22F001020C
:1038A00041E80023002BF5D10168143151E8002FC5
:1038B00022F0400241E80023002BF5D1202180F8BE
:1038C0003E10016B012909D101680C3151E8002F2C
:1038D00022F0100241E80023002BF5D1016B0129F1
:1038E00002D0FFF727FE10BD818DFFF766FD10BDEA
:1038F00010B5806B016B012902D0FFF721FE10BDCE
:10390000818D4908FFF759FD10BD01680C3151E860
:10391000002F22F4907241E80023002BF5D10168BA
:10392000143151E8002F22F0010241E80023002B5E
:10393000F5D1016B012909D101680C3151E8002F43
:1039400022F0100241E80023002BF5D1202180F85D
:103950003E1000210163704701680C3151E8002FCF
:1039600022F0C00241E80023002BF5D1202180F88D
:103970003D10704770B5044600680169E26821F4A3
:103980004051114301612169A068E26908436169FE
:10399000114308432168CA6849F20C639A43024301
:1039A000CA6020684169A26921F4407111434161F4
:1039B00031492068884202D03049884202D1FFF75D
:1039C000DDF901E0FFF7CAF9E26900231921642556
:1039D0003226B2F5004F626828D0A0FB0101930F98
:1039E0009200FCF75DFC0146B0FBF5F06FF01802A9
:1039F000504301EB800006EB0010B0FBF5F000F047
:103A0000F002B1FBF5F002EB0012B1FBF5F06FF044
:103A10001803584301EB800006EB0010B0FBF5F0F3
:103A200000F00F0021681044886070BDA0FB010108
:103A300092185B41FCF734FC0146B0FBF5F0020143
:103A4000B1FBF5F06FF01803584301EB800006EB73
:103A5000C000B0FBF5F000F0F80002EB4002B1FB53
:103A6000F5F0584301EB800006EBC000B0FBF5F029
:103A700000F00700D6E700000010014000140140EC
:103A800038B58162828500251346044605642220EC
:103A900084F83E00A26B1B48D063A26B1A481064E6
:103AA000A26B1A48D064A06B0A4605652168A06B1A
:103AB000091DFEF7A5FE206801684068009084F8A3
:103AC0003C5020680C3050E8001F41F4807140E801
:103AD0000012002AF5D12068143050E8001F41F090
:103AE000010140E80012002AF5D12068143050E8A6
:103AF000001F41F0400140E80012002AF5D10020EB
:103B000038BD00006F380008F1380008253800087B
:103B10002DE9F041984617460E460446069D27E0DB
:103B2000681C25D02DB1FEF7A5FFA0EB0800A84228
:103B30001ED920680C3050E8001F21F4D07140E8F5
:103B40000012002AF5D12068143050E8001F21F03F
:103B5000010140E80012002AF5D1202084F83D0040
:103B600084F83E00002084F83C000320BDE8F0818A
:103B70002068006836EA000004D00020B842CFD0A8
:103B80000020F3E70120F9E7FEE703B401984100C4
:103B9000009850EAC12018BF04204A0D18BF40F019
:103BA000010040F2FF72B2EB515F08BF40F002002B
:103BB000012808BF052002B070470907090E002838
:103BC00004DB00F1E02080F80014704700F00F00E3
:103BD00000F1E02080F8141D704700000000000094
:103BE00030B52DED048B81B0B0EE408AF0EE608AE6
:103BF0006A4651EC180B00F013F900989FED329BC8
:103C00007E300090002821DC53EC192B51EC180B6E
:103C100000F024FA1AD0002140F608004FF000000E
:103C2000044651EC180B00F0D3F908EE100A40F6E8
:103C3000080004EA00014FF00000B5EEC08AF1EE82
:103C400010FA04BF0220FDF7F6FC2DE00098FF28D3
:103C500030DB002108464FF0000000F4400553EC33
:103C6000192B51EC180B00F06FFB8CBF00240124C2
:103C70000220FDF7E0FC9FED168A4DB1002C0CBF31
:103C80004FF400004FF48000A84218BF9FED118A46
:103C9000042108464FF00000002C01BFB1EE480A95
:103CA00001B0BDEC048B30BDB0EE480A01B0BDECF4
:103CB000048B30BD51EC180B00F08AF901B000EE16
:103CC000100ABDEC048B30BD0000000000000000B5
:103CD0000000807FFFFF7F7F30B540F2FF742DED45
:103CE000048BF0EE608A18EE901A85B0B0EE408A30
:103CF0009FED2B9B05468DED008B34EA115147D08B
:103D000053EC192B51EC180B00F0A8F940D02A46BF
:103D100051EC180B00F000FC41EC180B18EE900A67
:103D20008DED008B34EA10501CD053EC192B51EC64
:103D3000180B00F093F92BD10220FDF77CFC00F06A
:103D400043F810EE901A18EE900A8DED020B8DEDEF
:103D5000008B61F31E0003909DED020B05B0BDECDE
:103D6000048B30BD0220FDF766FC00F01DF810EE5C
:103D7000901A18EE900A8DED020B8DED008B61F319
:103D80001E0003909DED020B05B0BDEC048B30BD11
:103D900005B0B0EE480AF0EE680ABDEC048B30BD09
:103DA00000000000000000009FED050B10B553EC73
:103DB000102B51EC100B00F0C9F941EC100B10BDA9
:103DC00000000000000000709FED050B10B553ECE3
:103DD000102B51EC100B00F0B9F941EC100B10BD99
:103DE000000000000000001010B5044691ED000B2B
:103DF000FFF7F6FE84ED000A10BD10B5044690ED05
:103E0000000B0846FFF768FF84ED000B10BD30384B
:103E10000A2801D2012070470020704700000000EE
:103E200010B582B01446CDE900010023009A23604A
:103E3000194B21F0004098422ADA024328D0B0F50D
:103E4000801FA8BF226810DA9FED150B53EC102BD2
:103E50009DED000B51EC100B00F078F9CDE900015D
:103E60006FF0350221F0004022600F4B6FF31E51BE
:103E700003EB20501044206041F0FF5040F0005010
:103E800001909DED000B00BF02B051EC100B10BD76
:103E90009DED000BF8E700000000F07F000000003F
:103EA000000000000000504302FCFFFF38B5194C31
:103EB000207801282CD11849002501F2EE206560F8
:103EC000FCF71AFB15A11748FCF704FBA06001786A
:103ED00047291DD1144A616803785354491C435C37
:103EE00003700A2BF8D10B48616055541430031F3E
:103EF00000901A1F0DA10C48FCF7CEFA04F10C0338
:103F000093EC030AFEF7CEFA0120FEF7B1FC257010
:103F100038BD000000000020340000204750524D02
:103F20004300000022030020100600204750524D9D
:103F3000432C2025662C412C2025662C204E2C203D
:103F400025662C00FEF7A4FDFFF7C8FBFFF76AFB10
:103F5000FFF752FBFFF784FBFFF79EFB4FF42F7236
:103F600003490448FFF7D0FAFFF7A0FFFCE7000081
:103F7000340000207406002010B500290AD008780B
:103F8000002807D005487844FDF790FD002801D0AF
:103F9000002010BD0248784410BD00000E0700004C
:103FA0000607000010B500290AD00878002807D0BD
:103FB00005487844FDF77AFD002801D0002010BDA7
:103FC0000248784410BD0000FE060000F60600001E
:103FD00021F00042A2F16052B2F5801F01F00043CF
:103FE00028BFD2F17F6C0BD95FEA001C43EAC20202
:103FF00042EB507018BF704728BF20F00100704797
:10400000B2F5801FBCBF184670474FEA410C1CF543
:10401000001F02D2084600F043BA70B500F040F924
:1040200000000089FFF7F6BF4FF00040A0F58000C8
:104030007047000002494FF0000000F03BBA00BF9B
:104040000000F87F491058BFC1F140415B1058BFD4
:10405000C3F140438B42EFF30080704751EA030CF9
:1040600017D41CF5801F58BFBCF5801F00F10680D7
:10407000994218BF704708BF9042704707D711F5A3
:10408000801F58BF13F5801F19D499427047894289
:1040900070471CF5801F08D5BCF5801FF7D58B42F3
:1040A00018BF704708BF824270474FF4001C1CEBDA
:1040B000410F38BF1CEB430F01D28B42704770B5E4
:1040C00000F0EEF8922449004FF000514FF0805379
:1040D000FFF7B8BF51EA030C17D41CF5801F58BF77
:1040E000BCF5801F00F10680994218BF704708BFD9
:1040F0009042704707D711F5801F58BF13F5801FF6
:1041000019D499427047894270471CF5801F08D521
:10411000BCF5801FF7D58B4218BF704708BF82429D
:1041200070474FF4001C1CEB410F38BF1CEB430FD2
:1041300001D28B42704770B500F0B2F8922449006A
:104140004FF000514FF08053FFF77CBFDFF848C1BC
:1041500070B51CEA111E1EBF1CEA13159EEA0C0F57
:1041600095EA0C0F00F06F8081EA030423EA4C13F8
:104170004EEAD47E21EA4C1141F4801143F48013BD
:10418000AE44A1FB024CA0FB0365AEF17F7E361965
:1041900055EB0C05A1FB034C4CF10003A0FB021CEA
:1041A00016EB0C06654153F10003094218BF46F0B7
:1041B000010613F4007F0BD14FEA03314FEA0530BB
:1041C000340341EA155140EA16506FF003020AE049
:1041D0004FEAC3214FEAC520F40241EA555140EAB3
:1041E00056506FF0020202EB2E4201EB025585EAB7
:1041F000CE710AD05FEA440C18BF24F0004450F19D
:10420000000041F1000120EAD47040F2FE7C6245DA
:1042100000D270BDA84214BF4FF080444FF040441C
:10422000002E08BF0024BEF1806FA8BFA1F1C041DD
:10423000BDE8704080F282804FF0000001F1C04183
:1042400001F0004170479EEA0C0F0CEA131518BFED
:1042500095EA0C0F06D04FF0000081EA030E0EF035
:10426000004170BD00F01CF88900013E00F007B865
:1042700000F009B84FEA430C5FEA5C5C08D081EAC1
:10428000030100F05BB84FEA410C5FEA5C5CF6D1D9
:104290004FF00000014970470000FF070000F87F61
:1042A0000EF1020E2EF0030E5EF8046B364205D4BA
:1042B000012A43EB030515F5001F12D8012841EB35
:1042C000010C1CF5001F0CD80ED14FEAD17C15F55E
:1042D000001F0CEB4C0C0CF1020C08BF4CEBD37C18
:1042E00004E04FF0080C01E04FEAD37C0CEB4C05E6
:1042F00026FA05F606F00706B6F1040C06D20EEB18
:10430000860CBDE870404CF0010C6047DFE80CF013
:10431000090B02024FF000414FF00000A1F500210F
:1043200070BD19461046012851EB010418BFD4F5A1
:10433000001484BF002001F0004170BD0808A0F502
:1043400000114FEA3101704753EA010C17D41CF5F4
:10435000801F58BFBCF5801F00F106808B4218BF3C
:10436000704708BF8242704707D713F5801F58BFB8
:1043700011F5801F19D48B4270479B4270471CF582
:10438000801F08D5BCF5801FF7D5994218BF70472C
:1043900008BF904270474FF4001C1CEB430F38BF1E
:1043A0001CEB410F01D2994270470FB40CBC03BC07
:1043B000FFF7C1BE43004FEAD30C4FEA3C0C434029
:1043C0001FBF40070CF1605113F0FE4F70471CF007
:1043D000006F03D100200CF0004170470CF0004347
:1043E00043EA507010B540EACC0000F00EF800BF70
:1043F000000000924FEA0001FFF7A0BF4FF000411C
:104400004FF00000A1F5002170470EF1020E2EF0D2
:10441000030E5EF8044B244204D44FEA4102B2F189
:104420007F4F11D84FEA4003B3F17F4F0CD80ED124
:104430004FEAD07CB2F17F4F0CEB4C0C0CF1020C2C
:1044400008BF4CEBD17C04E04FF0080C01E04FEAD0
:10445000D17C0CEB4C0324FA03F404F00704B4F110
:10446000040C06D20EEB840CBDE810404CF0010C9D
:104470006047DFE80CF0070802024FF00040A0F5AB
:10448000800010BD0846420018BFD2F1807288BF7C
:1044900000F0004010BD4FF04070E1EE100A704790
:1044A000FF2141EAD050C00570474FF0000070472F
:1044B000FCF7C1B90CF00F03092B08BF082000F06E
:1044C0005F800A2B0BD0082B18BF704708BF1CF069
:1044D000400F0AD04FF000004FF0000170471CF071
:1044E000400F18BF4FF0004070471CF0100F08D06D
:1044F00020F0704300F07F4242EAD3014FEA43705C
:10450000704700F0604021F07F4242EA000201F073
:104510007F4040EA727070474FF0FF0C4CF4E06C43
:104520001CEA11531CBF9CEA030C9445C2BFDA423B
:1045300001EB02517047002B0DD0BCF1000F0FD0E2
:10454000002A01F00041A4BF41F0E04141F07F6149
:104550004FF00000704701F000414FF0000070473D
:1045600050EA01334FF09B0C18BF4CF0806C7FF485
:1045700061AD7047FCF7DABBFDF764B8FDF7F2B93F
:104580001CF4801F11D01CF4E02F03D06FEACC3153
:10459000490070474FF04050EFF3008222F0704224
:1045A00042EA000282F3008870474FF00000704733
:1045B00000061016000610160000000000000000A3
:1045C00001020304060708090000000001020304B9
:1045D00002400000000000A00000000005400000B4
:1045E000000000C8000000000C4000000000409CDB
:1045F00000000000194000000020BCBE00000000C8
:1046000034400000BFC91B8E00000004B54000000C
:10461000504BCFD06607E2CF010000006C41000094
:104620003E8251AADFEEA73401000000D94200000B
:10463000DCB5A0E23A301F97FFFFFFFFB445000052
:10464000FD25A0C8E9A3C14FFFFFFFFFFF3F00000A
:104650000000008000000000FF3F0000000000801C
:1046600000000000C04700080000002034000000E7
:10467000D0010008F447000834000020D40D0000E9
:10468000EC010008000000000000F07FFFFFFFFFCA
:10469000FFFFEF7F1C00000043000000F8FFFFFF5A
:1046A0000C0000000E0000000F0000002E000000B3
:1046B0001001000043000000F8FFFFFF00404040F1
:1046C00040404040404041414141414040404040E5
:1046D0004040404040404040404040404005020291
:1046E0000202020202020202020202020220202050
:1046F00020202020202020020202020202029090AC
:1047000090909090101010101010101010101010A9
:1047100010101010101010100202020202028888FD
:104720008888888808080808080808080808080809
:1047300008080808080808080202020240000000F1
:104740000000000000000000000000000000000069
:104750000000000000000000000000000000000059
:104760000000000000000000000000000000000049
:104770000000000000000000000000000000000039
:104780000000000000000000000000000000000029
:104790000000000000000000000000000000000019
:1047A0000000000000000000000000000000000009
:1047B00000000000000000000000000000000000F9
:1047C00000000000000000000000000000000000E9
:1047D00000000000000000000000000000000000D9
:1047E00000000000010000001000000000000000B8
:0447F0000024F400AD
:040000050800019559
:00000001FF
